:10600000C00A00202D6D0000296D0000296D0000E0
:1060100001940000296D0000296D0000296D000029
:10602000296D0000296D0000296D0000296D000018
:10603000296D000014F2020065660000296D000061
:10604000296D0000296D0000296D0000296D0000F8
:10605000296D0000296D0000296D0000296D0000E8
:10606000296D0000296D0000296D0000296D0000D8
:106070008DA20000296D0000296D000075680000E8
:1060800081680000296D0000296D0000296D000065
:10609000296D0000296D0000296D0000296D0000A8
:1060A000296D0000296D0000296D0000296D000098
:1060B000296D0000C1D10200296D000019DB02002A
:1060C000D1DA0200CDDA020089D3020015DB02002A
:1060D000D5DA0200EDDA0200D9DA020071DB020043
:1060E0007DB6020045B8020059DB0200296D0000B0
:1060F0006D8B0000296D0000296D0000296D0000E6
:10610000296D0000296D0000296D0000296D000037
:10611000296D0000296D0000296D0000296D000027
:10612000296D0000296D0000296D0000296D000017
:10613000296D0000296D0000296D0000296D000007
:1061400010B5054C237833B9044B13B1044800E073
:1061500000BF0123237010BDD40E002000000000FA
:10616000883D030008B5034B1BB10349034800E019
:1061700000BF08BD00000000D80E0020883D0300CD
:10618000A3F5803A704700BF174B002B08BF134B95
:106190009D46FFF7F5FF00218B460F461348144A32
:1061A000121A27F0AAFF0E4B002B00D098470D4B78
:1061B000002B00D098470020002104000D000D485E
:1061C000002802D00C4800E000BF27F02BFF200081
:1061D000290000F03BFA27F011FF00BF0000080083
:1061E0000000000000000000C00A0020D40E0020C3
:1061F0001828002000000000000000007047000088
:1062000007B5084808F0DAF80023074A0193019B14
:10621000934202DD03B05DF804FB019B013301935F
:10622000F5E700BFA0000103DF93040030B5036869
:10623000234A23F47F4323F00703934285B005D01C
:1062400002F14072934235D005B030BD00216FF0AD
:106250001D000DF10E0303AA18F03AF8054630B3FD
:10626000184C1949206802F0C8FC1849206802F04F
:10627000C4FC00F051FC00F050FC154B154A1649C7
:1062800000932068712302F0B8FC2B46134A14498E
:10629000206802F0B2FC284600F066FC1149206834
:1062A00002F0ABFC0849206802F0A7FCFEE700F012
:1062B00023F9C9E70A2005B0BDE8304000F0A4B8D2
:1062C000A0000100940F0020A5F50200C0F102001B
:1062D00003F20200C5F10200CEF10200DAF1020081
:1062E000DDF10200F2F1020030B587B004460DF195
:1062F0000F0104A818F018F8054630B31D4C1E49CC
:10630000206802F07AFC1D49206802F076FC00F05B
:1063100003FC00F002FC1A4B1A4A00931A49552359
:10632000206802F06AFC2B46184A1949206802F0DE
:1063300064FC284600F018FC1649206802F05DFC59
:106340000D49206802F059FCFEE79DF810302370DB
:106350009DF8113063709DF81230A3709DF81330D2
:10636000E3709DF8143023719DF81530637107B008
:1063700030BD00BF940F0020A5F50200C0F102005F
:1063800099F2020054F20200CEF1020067F202001C
:10639000DDF10200F2F10200012337B5184C0222B0
:1063A00063700623A3701A23E370FF2323714C2329
:1063B00022706371E2710023152205461149227291
:1063C000A37104F1090211F8010B0133102B02F83B
:1063D000010BF8D16846FFF787FF9DF800309DF864
:1063E000030063769DF8013020F00100A3769DF84C
:1063F00002300543E376D7232577637703B030BDBA
:10640000F00E0020C00A002037B5304D1E220021BA
:106410002F4B287817F006FF044630B32D4D2E4938
:10642000286802F0EAFB2D49286802F0E6FB00F03C
:1064300073FB00F072FB2A4B2A4A00932A497E2301
:10644000286802F0DAFB2346284A2949286802F026
:10645000D4FB204600F088FB2649286802F0CDFBDB
:106460001D49286802F0C9FBFEE70246042128788E
:1064700017F00CFF054630B3164C1749206802F0A0
:10648000BCFB1649206802F0B8FB00F045FB00F0A9
:1064900044FB134B134A009313498623206802F0F0
:1064A000ACFB2B46114A1249206802F0A6FB284695
:1064B00000F05AFB0F49206802F09FFB0649206854
:1064C00002F09BFBFEE703B030BD00BFD00A002006
:1064D000F00E0020940F0020A5F50200C0F102008C
:1064E00083F2020054F20200CEF10200DAF102005F
:1064F000DDF10200F2F1020073B5494E0020FFF712
:106500004BFF304617F042FE044630B3454D464936
:10651000286802F072FB4549286802F06EFB00F023
:10652000FBFA00F0FAFA424B424A009342498F23A9
:10653000286802F062FB2346404A4149286802F07D
:106540005CFB204600F010FB3E49286802F055FB3A
:106550003549286802F051FBFEE701461E223A4BFE
:10656000307817F05FFE054630B32E4C2E49206878
:1065700002F043FB2D49206802F03FFB00F0CCFA0B
:1065800000F0CBFA2A4B2B4A00932B499623206824
:1065900002F033FB2B46294A2949206802F02DFBE3
:1065A000284600F0E1FA2749206802F026FB1E4940
:1065B000206802F022FBFEE70523A022009311468B
:1065C0000A23307817F000FE054630B3154C164903
:1065D000206802F012FB1549206802F00EFB00F063
:1065E0009BFA00F09AFA124B124A009312499F2329
:1065F000206802F002FB2B46104A1149206802F085
:10660000FCFA284600F0B0FA0E49206802F0F5FACC
:106610000549206802F0F1FAFEE702B070BD00BF44
:10662000D00A0020940F0020A5F50200C0F102005E
:106630006EF2020054F20200CEF10200DAF1020022
:10664000DDF10200F2F10200F00E002008B503F0C7
:106650003AFEFFF7D3FD03F043FEFFF7D1FD03F051
:1066600051F8F8E707F00CBF08B5044807F0A8FC9C
:10667000BDE80840024807F0D3BC00BF48F4020060
:1066800028F4020010B5044600F038F92046FFF760
:10669000CDFD10BD0120704700B5C3B007F0FAFD75
:1066A00007F023FE48B1FFF7F5FF30B101A817F05E
:1066B00067FD10B901A8FFF7E5FF43B05DF804FBE3
:1066C00008B5012000F070FA202000F06DFABDE856
:1066D0000840402000F068BA08B50321802001F08E
:1066E00069F903214FF4806001F064F903214FF44C
:1066F000906001F05FF908214FF4C06001F05AF991
:1067000008214FF4F06001F055F908213E2001F016
:1067100051F908212D2001F04DF9002008BD00009D
:1067200008B5174B1B68C3F30743012B0ED1154B5C
:1067300004205A6E4FF480231349520358BF134A62
:106740004B6601F51041086258BF536602F018F815
:1067500000F053FA01F094FF02F030F801F0B2FFBC
:1067600001F0EEFF01F0F2FFFFF7B6FF01F098FF36
:1067700000F038FA00F08AFBBDE8084002F0D2BE13
:106780000080E00F008000400090004000A000402A
:10679000704708B503F0F2FA02F012F800F05CF866
:1067A00002F074FA05F01CFABDE8084002F07EBD64
:1067B00008B501F059FFBDE80840FFF755BF00F0EC
:1067C000ADB970477047FFF767BF704770B5114E9E
:1067D00092B035460BAC0FCD0FC495E807000323EC
:1067E00084E8070003AD8DF8443006F11C030FCB9D
:1067F00007AC85E80F0006F12C030FCB84E80F00EF
:10680000054B214600930BAA2B46044802F052FC8C
:1068100012B070BD78F40200100F0020700F00203D
:10682000831E012B0AD8012908D80422094B1B69B1
:10683000C3F340130521002001F0EEBB023901290A
:1068400007D8012805D8034B00221B69C3F3401366
:10685000F0E7704700C0034008B50449044802F05F
:106860002FFFBDE80840FFF7B1BF00BF1C0B0020A1
:10687000480F0020014B186802F0DABC700F0020AE
:10688000FFF7F8BF014802F01BBB00BF700F0020EC
:10689000012070470120704710B507F067FD0446DE
:1068A000FFF7F6FF002814BF2046002010BD38B5C2
:1068B00003F016F8044607F067FD042817D00228F5
:1068C0004FF0000508BF0124FFF7DCFF042810D0BB
:1068D000022808BF0124FFF7DDFF04280BD002289F
:1068E00008BF0124002D18BF0024204638BD012513
:1068F000EAE70125EFE70024F7E7000030B5036879
:10690000664A23F47F4323F00703934204468BB087
:1069100040F0C280032000F0DFF890B1604D614983
:10692000286802F06AF900F0F7F800F0F6F86389D9
:106930005D49019323890093E388A288286802F0C7
:106940005CF900216FF01D000DF11E0307AA17F07E
:10695000BFFC054630B3524C5449206802F04DF953
:106960005349206802F049F900F0D6F800F0D5F854
:10697000504B514A009351494923206802F03DF998
:106980002B464F4A4F49206802F037F9284600F05D
:10699000EBF84D49206802F030F94449206802F0D4
:1069A0002CF9FEE7032000F097F880B13C4C3D49FC
:1069B000206802F022F900F0AFF800F0AEF8BDF95F
:1069C0001C30BDF91E204149206802F016F90DF176
:1069D0001B0108A817F0A8FC054630B3304C33491A
:1069E000206802F00AF93249206802F006F900F046
:1069F00093F800F092F82F4B2F4A00932F494F2322
:106A0000206802F0FAF82B462D4A2E49206802F041
:106A1000F4F8284600F0A8F82B49206802F0EDF8B9
:106A20002249206802F0E9F8FEE7032000F054F85C
:106A3000F8B11B4C1B49206802F0DFF800F06CF83D
:106A400000F06BF89DF81B309DF8252004939DF80D
:106A500020301F4903939DF8213002939DF8223086
:106A600001939DF82330009320689DF8243002F0B4
:106A7000C4F8FFF741FD032000F02EF860B1084C88
:106A80000849206802F0B9F800F046F800F045F82F
:106A90001049206802F0B1F80BB030BDA000010031
:106AA000940F0020B4F40200B9F40200A5F502002E
:106AB000C0F10200C3F50200E7F40200CEF10200CB
:106AC000DAF10200DDF10200F2F1020024F5020029
:106AD00064F50200A7F502000B4B02461B788BB150
:106AE0000A4B1B78834234BF00200120084B1B78DF
:106AF0003BB1084B1B7843FA02F212F0010F08BFBA
:106B0000002070470120F1E7240B0020250B002016
:106B1000980F0020260B002070477047012208B50F
:106B2000074B1A700022074B1A700422064B1A708A
:106B30001F22064B1A7002F027F8054B186008BD9B
:106B4000240B0020980F0020250B0020260B00208E
:106B5000940F0020024B0349186802F04EB800BFA2
:106B6000940F0020D9F5020070B50C4C0C49064674
:106B7000206802F042F802F007F80546206801F0AC
:106B8000F7FF3046FFF7E6FF284601F0F1FF2068E7
:106B90000449BDE8704002F030B800BF940F0020F7
:106BA000DBF50200DDF50200082808B50DD004DC95
:106BB0000138012809D90E2013E020280AD04028E6
:106BC000F9D100230422194602E0042200231146D1
:106BD000184603E0042200231146012001F01CFAAC
:106BE000002008BD08B501213A2000F025FBFFF781
:106BF00067FDBDE8084000F005B801213A2000F02B
:106C00001BBB00002DE9F04786B06C46424DDFF813
:106C100014810FCD0FC495E80300012584E803001B
:106C200001213A2000F008FB0121282000F004FB9C
:106C30003A4B6946404602938DF80E5001F0CCFB6A
:106C40002B4604220021022001F0E6F92A462946BB
:106C50000023022001F0E0F902212B46084604221D
:106C600001F0DAF9042203212B46022001F0D4F9C5
:106C70004FF002132A4C0226C4F83036A3F58033B5
:106C8000C4F82C361C230827C4F8346604F5005ACF
:106C9000C4F81C364FF4487003F02EFB04F58059FD
:106CA0001420CAF8707003F027FB2320C9F8707015
:106CB00003F022FBB9214046CAF8707001F0ECFBEA
:106CC000002330461A461946C9F8707001F0A4F93D
:106CD000002329461A46304601F09EF92B463146DC
:106CE0003046002201F098F92B460022032130465D
:106CF00001F092F9404601F0C5FA00212820C4F8BD
:106D00003016C4F82C16C4F83416C4F81C1600F05B
:106D100093FA06B0BDE8F087E0F5020000127A00B1
:106D200000C0034000C00540FEE7000008B500F0C9
:106D300013F8064B064A07498B4201D3FFF724FAA2
:106D400052F8040B43F8040BF6E700BFC00A00201A
:106D5000903D0300D40E0020044B054A9A60D3F8FE
:106D6000882042F47002C3F88820704700ED00E0EC
:106D700000600000014B1868704700BF2C0B00201A
:106D8000084B1B6F03F00703022B04D0032B05D025
:106D9000012B05D0FEE7044B18687047034BFBE757
:106DA00003487047008000402C0B0020300B00206F
:106DB000002D310108B5FFF7E3FF054B1B6FC3F34F
:106DC00003330133B0FBF3F0024B186008BD00BF82
:106DD00000800040280B00200048704700B4C40425
:106DE000014B1868704700BF300B0020054B18603E
:106DF000054B1B6F03F00703032B01D1FFF7DABF2D
:106E0000704700BF300B002000800040002070471A
:106E100000487047002D31014FF4004070474FF497
:106E20007A707047014B1868704700BF340B002020
:106E300000239B6AB3F5C04F03D21968064A9142FA
:106E400003D00023037083607047012202709A68A8
:106E50009B694260F7E700BF07B0CD5E0023036087
:106E6000704703680B6001607047000005490A68BD
:106E70001318054883428CBF4FF0FF320B60104659
:106E8000704700BF380B002000800020024B1968BB
:106E9000024B18681FF052BB400B00203C0B002037
:106EA0007047000037B5920004460D46019228F065
:106EB00077F9431C0BD060B929462046019A27F088
:106EC000E5F80028044808BF002003B030BD03489F
:106ED000FBE70348F9E700BF10E000F021E000F015
:106EE00024E000F013B5044601A801F069F99DF80B
:106EF0000630012223804FF4807300206380054B0D
:106F00009B680A3303F01F0302FA03F3636002B0C5
:106F100010BD00BF0080E00F01F0CEB808B501F051
:106F2000BBF8002008BD10B5044644EA010313F085
:106F30000303084609D1934201D1002010BD54F843
:106F4000231040F823100133F5E72146920027F083
:106F5000ADF8F2E710B5044628F01AF9431C15D035
:106F6000B0B90C4B20469B680A3303F01F02012383
:106F7000934023F003032344984201D1002010BD25
:106F800050F8042B0132F7D00348F8E70348F6E73E
:106F90000348F4E70080E00F0EE000F021E000F08D
:106FA00024E000F008B500F09BFE014B186008BD1E
:106FB00030160020014B186800F096BE30160020F5
:106FC0000A460139014402F0CBB94FF04023D3F80F
:106FD0008420D206FBD4D3F88400C0F3811070471C
:106FE00038B5104B0546D3F820310C4603F00303A7
:106FF000022B0BD0032B0DD0012B0FD1FFF7BAFEC4
:10700000052305B1286004B1237038BDFFF7E8FE01
:107010000323F6E7FFF7FCFE0223F2E700231846FE
:10702000EFE700BF0080004073B50D4600210E4B16
:107030000191D3F88041064604F00304012C09D0E5
:10704000022C0CD00C460EB1019B336005B12C70A4
:1070500002B070BD01A8FFF7C3FF0F24F3E7FFF7ED
:10706000D7FE0190EFE700BF0080004038B5174B16
:107070000546D3F824310C4603F00703013B052BEA
:1070800020D8DFE803F0030F171B0B13FFF772FE86
:10709000052305B1286004B1237038BDFFF76AFEEF
:1070A0000623F6E7FFF79CFE0323F2E7FFF798FEBF
:1070B0000423EEE7FFF7ACFE0223EAE7FFF7A6FEA4
:1070C0000723E6E700231846E3E700BF00800040FF
:1070D00038B5104B0546D3F840310C4603F0030396
:1070E000022B0BD0032B0DD0012B0FD1FFF794FEF9
:1070F000092305B1286004B1237038BDFFF792FE63
:107100000823F6E7FFF78BFE0B23F2E70023184670
:10711000EFE700BF0080004038B5134B0546D3F8B9
:1071200000320C4603F00703013B032B18D8DFE8BD
:1071300003F0020A0E12FFF76FFE092305B1286063
:1071400004B1237038BDFFF76DFE0823F6E7FFF7A3
:1071500066FE0B23F2E7FFF72DFE0E23800AEDE714
:1071600000231846EAE700BF0080004038B5104B06
:107170000546D3F840320C4603F00303022B0BD034
:10718000032B0DD0012B0FD1FFF746FE092305B1CC
:10719000286004B1237038BDFFF744FE0823F6E7EA
:1071A000FFF73DFE0B23F2E700231846EFE700BF91
:1071B0000080004038B5104B0546D3F860310C46CE
:1071C00003F00303022B0BD0032B0DD0012B0FD1A7
:1071D000FFF722FE092305B1286004B1237038BDF2
:1071E000FFF720FE0823F6E7FFF719FE0B23F2E76F
:1071F00000231846EFE700BF0080004010B40D4C9C
:107200000B46D4F8204204F00304012C0AD0022CCF
:107210000CD008B1002101600BB100221A705DF89A
:10722000044B70475DF8044BFFF7DABE5DF8044B82
:10723000FFF74EBF00800040420910B510D0012A70
:1072400010D00B4B0B4C022A18BF234600F01F0036
:1072500051B103F58053012202FA00F0186010BD0D
:107260001346F3E7044BF1E703F50053F3E700BFE0
:10727000688000406082004064800040B0F5207F5C
:107280001FD009D8B0F5007F15D003D868B1B0F58C
:10729000C07F0AD000200CE0B0F5607FFAD10B4B24
:1072A000D3F88000C0F3011003E0084B186FC0F35F
:1072B000033001307047054BD3F89000C0F30460F1
:1072C000F7E7024B186FC0F38020F2E70080004020
:1072D0001FB5002380280446029372D02BD80028C3
:1072E00073D0A0F12004A3B2412B32D8412C30D866
:1072F000DFE804F06B6E6B6E7D7D7D7D6E6E873C8E
:107300009E623C6E6E6E2F2F2F2F2F2F82546E6E2B
:107310006EA8A36E2F2F2F2F2F2F2F2F2F2F2F2F12
:107320002F6B2F6B6B6B7D2F2F2F2F2F2F2F2F2F2F
:107330002F2F2F2F6B6BB0F5806F58D021D8B0F561
:10734000007F4FD008D8B0F5807F5FD0B0F5C07F08
:107350003BD0029804B010BDB0F5607F42D0F8D8A1
:10736000B0F5207F34D0B0F5407FF2D1FFF722FD99
:1073700002464FF42070FFF781FFB2FBF0F04008A7
:1073800021E0B0F5C06F53D00DD8B0F5A06F33D069
:10739000B0F5B06F35D0B0F5906FDAD1002102A80A
:1073A000FFF764FED5E7B0F5E06F46D0B0F5F06FBB
:1073B00048D0B0F5D06FCCD1002102A8FFF7ACFEC9
:1073C000C7E7FFF7DDFC0290C3E7FFF7F3FCFAE73E
:1073D000FFF7F0FC02464FF42070FFF74FFFB2FBBF
:1073E000F0F0F0E7FFF7CCFC02462046F5E700217D
:1073F00002A8FFF7F5FDACE7002102A8FFF7FEFEAB
:10740000A7E7002102A8FFF70FFEA2E703934FF0C2
:10741000E0231B695B0705D5FFF7CCFC0390039BBA
:10742000029396E70DF1070103A8FFF751FEF6E777
:10743000002102A8FFF74CFE8BE7002102A8FFF70E
:1074400095FE86E7002102A8FFF7B4FE81E7000061
:1074500008B58020FFF73CFF034B98429EBF4FF4D6
:107460008032024B1A6708BD005A620200A0004039
:107470004FF4003238B50E4B05469A660020FFF7F0
:10748000FDFE41F671320B4B6843DC690A4DDA634D
:107490009A68A84204F4803422F4401203D90129E6
:1074A00018BF42F480129A600CB10022DA6338BD32
:1074B0000090004000000340005A620208B5FFF748
:1074C0008BFCBDE808400021FFF7D2BF002307B5C1
:1074D000B0F5807F8DF802307FD02AD8382800F0B0
:1074E000A0800CD8243883B2092B10D809280ED8D4
:1074F000DFE800F06D6D6D6D0D0D670D3987522859
:1075000065D009D83D283ED03E2800F090809DF8F7
:10751000020003B05DF804FB8028F8D1474B1B6FD5
:1075200003F00703013B032BF1D8DFE803F04844E5
:107530004276B0F5D06F64D01BD8B0F5A06F70D094
:107540000BD8B0F5806F42D0B0F5906FDFD100203E
:107550000DF10201FFF78AFDD9E7B0F5B06F30D029
:10756000B0F5C06FD3D100200DF10201FFF7B0FDDF
:10757000CDE7B0F5006FEAD00BD8B0F5E06F56D08C
:10758000B0F5F06FC3D100200DF10201FFF712FE3C
:10759000BDE7B0F5086FBAD1284BD3F8003103F03E
:1075A0000303022B33D0032B35D0012B37D1FFF748
:1075B00017FC032300E005238DF80230A7E7022320
:1075C000FAE700200DF10201FFF72EFD9FE70020F2
:1075D0000DF10201FFF704FD99E701934FF0E0235D
:1075E0001B695B0707D5FFF7E5FB0C238DF803301C
:1075F0009DF80330E0E70DF1030101A8FFF768FDF6
:10760000F6E700200DF10201FFF786FD7FE7FFF7A7
:1076100009FC0823D0E7FFF7F9FB0723CCE7012398
:10762000CAE700200DF10201FFF7E8FD6FE7002037
:107630000DF10201FFF79AFD69E700BF00800040ED
:1076400008B5FFF743FF082812D00938C0B2012857
:1076500011D84FF40012094B4FF6FF705A6603F52C
:10766000D8335B6A13F0010F18BF4FF4FA7008BDEE
:10767000034B1888FBE74FF6FF70F8E700900040D7
:10768000600B002070B504468020FFF71FFF032821
:107690007CD04FF40022424B42495A6645F60E0315
:1076A0000222C1F88030404B9A62012203F58053D8
:1076B0009A628A6D12F48032FBD1637820781B05C0
:1076C00043EA0063A079257C0343E078667C43EAC3
:1076D0000043207943EA0033607943EA80130B6169
:1076E0008B69E07A03F000430343E07943EA806367
:1076F000207A43EA0063607A43EA0043A07A43EACF
:1077000000238B61637B096A002B18BF0822207B52
:1077100021F00D0143EA010343EA800342EA030238
:10772000204B1A62A27B4FEA421230D1986AE17B69
:1077300020F0330042EA0112024342F001029A6251
:107740001A4A996D32EA0101FBD1022216498A6276
:107750001A659A6D5200FCD41869A27820F4700062
:1077600040EA02504FF0004218610F4B9A611DB978
:10777000022203F580539A6216B901220C4B9A62D9
:10778000A37C1BB1074B0B4AC3F8802070BD996ADC
:1077900021F0330131430A4342EA4502EFE700BFDB
:1077A0000090004000C0004000D0004003000140B5
:1077B00000E00040F1A7FFFF014B93F90000704784
:1077C000E4160020F0B54FF480061B4A4178847817
:1077D000C378057856664FF4D156022702F5B832C1
:1077E0005662164E4F2977604FF0010728BF4F2190
:1077F00006F5805677601669F603FCD441EA052148
:1078000051611B01417943EA04230B43017943EAA7
:1078100041039360C37981791B0143EA4113417AA3
:107820000B43017A43EA41035360837A13B16FF447
:10783000D1535362F0BD00BF0090004000100240E1
:10784000014B1880704700BF600B00204FF40012FE
:1078500008B5184B5A660223174A5360936813F40D
:107860008033FBD1012822D1FFF7BAFA134B98429B
:1078700015D003F5122303F5F863984213D0104B8B
:1078800000EB8002400AB3FBF0F0520A0A4BDA62C6
:10789000012218635A620022074B5A6008BD45F660
:1078A0007A10084AF2E745F61A00074AEEE75362F3
:1078B000F1E700BF009000400040024000F04902A4
:1078C00064666666D8B80500BBCF05000029CCBF4A
:1078D00001210021FFF7CCBDB0F5207F10B50C468B
:1078E00042D008D8B0F5007F33D003D888B1B0F5C6
:1078F000C07F0ED010BDB0F5607FFBD11F4B013CA7
:10790000D3F8801021F0300141EA0414C3F880401C
:10791000F0E7FFF7D3FD00F035F84FF48031184A57
:10792000164B1167196F013C21F4704141EA043490
:107930001C67FFF73FFA0446FFF747FBC0F102015F
:107940002046FFF7C3FF00F023F8BDE81040FFF723
:107950007FBD0A4B013CD3F8901021F0F85141EA69
:107960000464C3F89040C5E7044B013C196F21F44F
:10797000806141EA84241C67BCE700BF00800040AE
:107980000090004002214FF42070FFF7A5BF0000D7
:1079900008B54FF4C070FFF79BFCBDE808400449F0
:1079A00088428CBF022101214FF42070FFF794BF61
:1079B00080F0FA02B0F5807F70B50C4600F0FE80D2
:1079C0002AD8382800F0528111D8243883B2092BE4
:1079D00016D8092814D8DFE810F0E000E000E00035
:1079E000E00013001300D1001300480038015228B2
:1079F00000F0D38005D83D2853D03E2800F04781C1
:107A000070BD8028FCD18B1E052B00F2B480DFE80E
:107A100003F0AF9DB26DB2ACB0F5D06F00F0158140
:107A200034D8B0F5A06F00F0218117D8B0F5806F81
:107A300000F0B380B0F5906FE2D1023CE4B2052CC7
:107A40008CBF00219A4B9B4A98BF195DD2F8243114
:107A500023F007030B43C2F82431D1E7B0F5B06F30
:107A600000F08C80B0F5C06FCAD1083CE4B2032CA2
:107A70008CBF0021904B8F4A98BF195DD2F84031DE
:107A800023F003030B43C2F84031B9E7B0F5006FB0
:107A9000D3D017D8B0F5E06F00F0F980B0F5F06FF3
:107AA000AED1083CE4B2032C8CBF0021834B814A49
:107AB00098BF195DD2F8603123F003030B43C2F87D
:107AC00060319DE7B0F5086F9AD1CC1EE4B2052C69
:107AD0008CBF00217A4B774A98BF195DD2F80031EC
:107AE00023F003030B43C2F8003189E70025022687
:107AF0000121022000F0A6F9FFF7E0FCFFF742FFAA
:107B00004FF480316F4B6B4A1967136F23F00703F3
:107B100033431367FFF74EF90646FFF756FAC0F1F5
:107B200002013046FFF7D2FE0121002000F0CAF921
:107B3000FFF72EFFFFF78CFC002D7FF461AF032CC5
:107B40007FF45EAF0122604B9A6259E74FF4002246
:107B50005C4B03265A66012203F540539D6A03F5E8
:107B60008053C5F340059A62C2E700250426BFE7AB
:107B700000250126BCE700252E46B9E7022C03D0DC
:107B8000A4F10F00444244414A4AD2F8803123F024
:107B900003031C43C2F8804132E7023CE4B2032CE9
:107BA0008CBF0021494B434A98BF195DD2F8203160
:107BB00023F003030B43C2F8203121E7A1F10804AD
:107BC000082C3FF61DAF01A353F824F0F17B000011
:107BD000F17B0000017A0000F17B00001F7C0000B7
:107BE000017A0000017A0000017A0000F17B0000B8
:107BF0004FF480322F4B3649586E03F580535A6646
:107C00000B6A43F001030B62C1035CBF314B5A6640
:107C10004FF0E022136923F004031361F0E64FF400
:107C20008032244B2A49586E03F580535A660B6AFA
:107C300023F001030B62C3035CBF264B5A664FF06F
:107C4000E022136943F00403E7E7083CE4B2062CA2
:107C50008CBF0021204B174A98BF195DD2F8003223
:107C600023F007030B43C2F80032C9E60F2C0CD0F7
:107C7000102C14BF002102210E4AD2F8203223F02A
:107C800003030B43C2F82032BAE60121F4E7083CB3
:107C9000E4B2032C8CBF0021104B064A98BF195D3B
:107CA000D2F8403223F003030B43C2F84032A7E678
:107CB00024F602000080004020F6020020F60200B8
:107CC00031F602000090004000E000401CF6020087
:107CD00000C0074000A000402AF6020020F6020083
:107CE000EFF3108072B6704700B962B67047EFF3D9
:107CF0001180302383F31188704780F31188704717
:107D0000194B10B51B6873B3184A5268012A2AD060
:107D1000174A8020C2F80031FFF7D8FB05281FD191
:107D20004FF4C070FFF7AAFA0128044604D10221DB
:107D30004FF4C070FFF7D0FD07220E4B1A610122ED
:107D4000A3F580535A60094A1369DB07FCD5012C5F
:107D500009D12146BDE810404FF4C070FFF7BCBD0B
:107D60000122054B5A6010BDE816002000C00140FA
:107D70000080004000E0014000D0014000224FF4AC
:107D80000031074B1A60074A516602F59832526873
:107D9000012A02BF044AD2F800211A60704700BFCE
:107DA000E8160020009000400080004070477047B7
:107DB0007047000010B5044608B1FFF7DFFF0E4A18
:107DC000136943F00403136101F064FEFFF7EFFF52
:107DD000FFF786FF27F0ECF9FFF786FFFFF7E8FFD4
:107DE00001F06CFE1CB1BDE81040FFF789BFBDE893
:107DF0001040FEF7DFBF00BF00ED00E010B5044605
:107E000008B1FFF7BBFF0C4A136943F00403136189
:107E100001F040FEFFF764FF27F0CAF9FFF764FFA7
:107E200001F04CFE1CB1BDE81040FFF769BFBDE892
:107E30001040FEF7BFBF00BF00ED00E0FFF79EBFA0
:107E4000FFF75EBFF8B504464FF04023D3F8842017
:107E5000D106FBD4D3F88430C3F381139C422DD0D8
:107E6000FEF78EFF012C064602D12146FFF72EFDBC
:107E7000FFF736FF4FF00072114B07465A66204657
:107E8000FFF794FF4FF480634FF04025621E93404C
:107E90002B676B6E9A0103D4D5F884309B060AD504
:107EA0003846FFF721FF022C08D13046BDE8F840E4
:107EB0000021FFF70BBDD5F88430EAE7F8BD00BF1D
:107EC0000060004007B518B90191FEF759FF01990C
:107ED000064B1B7843B1064B984205D8012003B0EE
:107EE0005DF804EBFFF7AEBF0220F8E7EC160020C8
:107EF000005A62020278034B012100201A70FFF73A
:107F0000E1BF00BFEC1600204FF04022536F4178D4
:107F100023F4407343EA0123536770474FF0402234
:107F2000D36E017923F030030B43D3667047000012
:107F30004FF0004210B501244AF6CD31144B5A6679
:107F4000144A03F50B2354605A6C1964224078B923
:107F5000996811F0010F104903D08C60D86AC007EE
:107F6000FCD501234B6012B10C4B0D4A1A6410BDB5
:107F7000D96A0907FCD42021074B59620121A3F5D6
:107F80008053996005494B6A9B06FCD5EBE700BF1F
:107F90000090004000500940006009400040094046
:107FA0003254FFFF4FF0004238B5184B184C5A6658
:107FB000012203F50C235A604AF6CD33656C236425
:107FC00043781540934013434FF04022D363A36896
:107FD000827823F0740343EA0213C278002A14BFA4
:107FE000042200221343A3600279837943EA022327
:107FF00023614279C37943EA022363610078FFF782
:1080000097FF0DB1034B2364012038BD0090004061
:10801000004009403254FFFFF0B54AB10125302637
:108020001C4C8D4006FB00440BB341F21006A551D9
:1080300030244443072904F1804404F5703419D8EE
:108040000F2765688E00B74025EA070502FA06F695
:108050003543656052B90122302402FA01F10D4A1C
:1080600004FB00209BB141F21003C150F0BD42F26D
:108070001006DCE70F27A1F10805E668AD00AF4068
:1080800026EA070602FA05F53543E560E2E742F223
:108090001003EAE700C003404FF40032054B9A6634
:1080A00041F6713203F51C33DA63012203F5005304
:1080B000DA6070470090004041F671320121064BB2
:1080C000DA6303F50052D1600022DA634FF4003224
:1080D000A3F518339A667047000003404FF09043B1
:1080E0005A6812B19A6A002AFAD17047CB784A7856
:1080F00010B55B010C7843EA82030A79234343EA13
:1081000002130C22424302F190421363012C02BF7E
:108110008A78024B43F8202010BD00BFE88003405E
:1081200008B54FF090435A6802B960B15B680BB173
:10813000FFF7D4FF4FF0904130B10120074B58605A
:10814000FFF7CCFFC86008BDFFF7C8FF0223CB6074
:10815000FFF7C4FF0122024B5A60F4E70010004809
:10816000002000484FF090435B6870B50BB1FFF7FB
:10817000B5FF0121104B4578596083780679002BB3
:10818000C37814BF02240024002B14BF0422002251
:108190004379DB0043EA06132B43234313434FF099
:1081A00090429360054B59600378002B14BF0B4637
:1081B0000223D36070BD00BF0020004800100048BB
:1081C0004FF48032064B5A6603F5E6235B69C3F32E
:1081D0008512827003F03F021B0B427003707047E0
:1081E0000090004070B5054616461C4621B94FF474
:1081F0002070FFF76DF80146402C1BD003D8DCB18E
:10820000202C1BD070BD602CFCD1042303FB06F294
:10821000560806EB4113B3FBF2F3094A203B02EA8E
:10822000C303AA6822F06002AA60AA681443AC6083
:10823000EB61E7E70623E9E71023E7E70823E5E733
:10824000F8FF7F0038B50546144621B94FF4207079
:10825000FFF73EF8014601396400B1FBF4F1090271
:10826000E96138BD012200F580535A60CB43934049
:1082700003F00A034361416111B900F50050426007
:1082800070470000012200F5805310B55A6040F697
:10829000AA6341F20502436100230E498360C3656E
:1082A000C26000F500520361C361C36491640A496E
:1082B0008365884202D0094CA04207D188420365F9
:1082C00002D0064B984201D100234365012353603D
:1082D00010BD00BFFFFF010000C0054000000640C8
:1082E00070B50D46FFF7CEFF012300F58056736091
:1082F000AB7C04461BB1836843F080438360EB7C16
:108300005BB1324A2B7D94423FD1A2F51032C2F8C4
:108310008C31E36D43F08003E3652A8A6B7B204652
:108320001343EA891343E3602B7BD5E90112FFF77E
:1083300059FF6B7D1BB1A36843F48033A360AB7D11
:10834000EA7D1B07120502F4E00203F0E043134349
:10835000A365297E1D4A8B1E012B1D4B1FD89442FD
:108360001BD002F5804294420CBF01224FF0FF3235
:1083700003EB4213022041F21C620329985020D1E2
:108380000423F3652B78636170BD124A944204BFE5
:10839000A2F52032C2F89C31BBE70022E8E7944204
:1083A0000DD00C4A94420CBF01224FF0FF3203EB78
:1083B0004213022042F21C6201299850DFE700229A
:1083C000F5E7042204F50053DA65DBE700C0054059
:1083D00000C003400000064038B50D46FFF752FFCD
:1083E0000122A97B00F580535A602A8A83680029FC
:1083F00014BF4FF48061002142F0010213432A7D33
:108400000B43002A14BF4FF00052002283608368A0
:10841000044613438360AB7C5BB11A4AEB7C904209
:1084200027D1A2F51032C2F88C31E36D43F08003FE
:10843000E3652B7B2046D5E9011243F48053E360CA
:10844000FFF700FF6B7B0BB1102363616B7D1BB1EA
:10845000A36843F48033A360AB7DEA7D1B0712055C
:1084600003F0E04302F4E0021343A3652B78636159
:1084700038BD054A904204BFA2F52032C2F89C31B3
:10848000D3E700BF00C005400000064083691B061B
:10849000FCD5406AC0B2704783695A06FCD5C163F7
:1084A00083699B06FCD5406AC0B2704783695B064E
:1084B000FCD5C1637047000038B50446054D1FF078
:1084C0006BF90FCC0FC594E8030085E8030000208A
:1084D00038BD00BFF016002047F6FF739A42F0B592
:1084E0005ED002295ED8304ECF0016F8313006EB50
:1084F000C100012B85780DD1C3785B1B23B1416886
:1085000031F91310914202DCE818C0B2F0BD013B12
:108510001BB2F3E740680028F8D0B0F9003093426E
:1085200004DBB0F902309342B8BF134682883E4460
:10853000FF2A19BFC8242821B0F90640B0F9081055
:10854000A4EB03040CBF0122002294FBF1F4767823
:10855000224414B2721EA242A8BF22464FF47A7778
:1085600000EBC204E188A468013213FB014112B29E
:1085700021EAE17101F5FA71B242B1FBF7F104DAD7
:1085800000EBC204A4888C42EAD200EBC20232F8AB
:10859000040C884228BF0846A84238BF2846B4E7E2
:1085A000FF20B3E70020B1E7F01600200229F0B564
:1085B00054D82B4800EBC10310F831105C68012936
:1085C0000FD19878D978914294BFC0EB0103C0EBEA
:1085D0000203091ADBB28B42C8BF002334F913002F
:1085E000F0BD002C3AD09978914202D3B4F9020040
:1085F000F6E7D978B4F900009142F1D9A1885B7807
:10860000FF294FF0000114BF03F1FF33023BDBB23F
:10861000251D04F10C071FFA82FCCEB2B34216D816
:1086200005EBC1014FF47A756A43B1F9023049682C
:10863000521A03EBD37102EB610292FBF3F2904208
:10864000CEDBB4F902009042CADC10B2C8E737F8BA
:1086500031E04E1CE645E3D33146DEE70148BFE793
:10866000F01600200080FFFF08B50448FFF724FF44
:10867000BDE8084001201FF091B800BF38F60200A5
:1086800007B56B46054A1068516803C36846FFF793
:1086900089FC002003B05DF804FB00BFBCF60200BB
:1086A0004FF0402213B50024536F684643F0010396
:1086B000536700948DF80440FFF730FC204602B069
:1086C00010BD000070B586B001AA1546184B03F125
:1086D0001006144618685968083303C4B34222468A
:1086E000F7D119889B782180A370124BD3F84C21C5
:1086F000120314D4D3F85041E4B28DF80E40FFF7C2
:108700005BF8204480F308008DF80D000A48FEF75E
:108710006DFB2846FEF7B6FF002006B070BD074B84
:108720001C884FF6FF739C4208BF7824E5E700BF22
:10873000C4F602000080E00F00F049020001E00FE3
:1087400008B50120FFF782F8002008BD1FB50B4ACD
:1087500001AB1068516803C31189927A19809A702D
:10876000252301A88DF80530FFF72CF86420FFF7CA
:1087700067F8002005B05DF804FB00BFD7F60200E3
:108780006FF00402502110B50A480B4C12F0800F14
:10879000D3B21BBF03F00F03043BA3181B1802F155
:1087A00001020CBF83F800131976402AEED1002095
:1087B00010BD00BF00ED00E000E100E000F07AB87D
:1087C00038B501F0DBFA0446E0B901F0D7FB4FF40D
:1087D000167343430C4803F5742303F23F23B3FBA2
:1087E000F0F30A4A0A4913600A220D680948013A5F
:1087F00012F0FF0240F8043BF9D103EBC3022B4413
:1088000013440B60204638BD40420F00441700203F
:10881000101700201417002070470000012208B52F
:10882000034B1A7001F09EFB024B186008BD00BF9D
:108830000C17002040170020F8B5144C237823B300
:1088400001F090FB124B134D1B68134EC01A012808
:1088500038BF0120114B124F18602B7856F8232097
:1088600046F82300111A3A680E48521A0A213A6053
:108870000932B2FBF1F20133DBB20260B3FBF1F279
:1088800001FB12332B7000232370F8BD0C1700205E
:10889000401700203C170020141700200817002064
:1088A0001017002044170020014B1868704700BFC4
:1088B0004417002020234FF400220A4981F82C336A
:1088C000094B5A66094A03F5A040426702674FF414
:1088D000805003F540530344C1F8840148605A674F
:1088E000704700BF00E100E000900040010000A0E0
:1088F000054B064A1B78916DC90700D513B10028B6
:10890000F9D17047012070475C17002000C000407B
:108910002DE9F843874B1E6F9D6A9C6AF00705F0AE
:10892000020504F001044CD501278349834A91F8DC
:108930000090DFF828821767B9F1000F00F0ED8092
:108940000020087098F80010B94200F2E18002217E
:108950009762A2F5805291629A6DD103FCD4784956
:108960005A6B096822F470620A435A637548764A62
:1089700099690068126821F47F01024321F47F4164
:108980000A439A617148724A19691268006821F4B1
:108990007F6121F00F0102430A431A616D499A6910
:1089A000096822F0FF020A439A610223002D40F079
:1089B000AB80624A93620123002C00F0A780664AD4
:1089C000936216F000527FD04FF0010E5B4F634967
:1089D0003A67594A574B82F800E00A78DFF864C1D9
:1089E00072440A705A6B564902F4706008609869C4
:1089F000554900F47F4008609969DFF8588101F417
:108A00007F01CCF80010D3F818C05FFA8CFCC8F8CE
:108A100000C0D3F810C0DFF838810CF47C6CC8F8C3
:108A200000C0D3F810C0DFF824810CF03F0CC8F868
:108A300000C0C7F828E04FF0020EDFF81CC1CCF8E8
:108A400028E04FF0004ECCF828E0D3F858C01CF4D2
:108A5000803FFAD14FF0004C22F4706242F4007271
:108A6000B0F5C84FC7F828C05A6302D8B1F5C80F8F
:108A70000CD9304A3A499369096823F47F0323F4F7
:108A80007F4343EA012343EA01439361294A35497D
:108A90001369096823F47F6323F00F03880843EA0E
:108AA000910343EA80131361936923F0FF030B439F
:108AB00093610223002D37D102F500529362012306
:108AC000002C33D0244A9362002E1BDA4FF0004270
:108AD0001A4B18491A67244A12789AB101229A62ED
:108AE0000222A3F580539A628A6DD203FCD44FF020
:108AF00000429A61022205B9104B9A620123BCB16F
:108B0000154A9362BDE8F883134A53E70B4A57E7C7
:108B1000FFF782FE144B1F7053E7FFF78DFE00F046
:108B2000EFFE88F800904CE70B4AC7E7034ACAE714
:108B3000024AE6E700C000405C17002000E0004069
:108B400060170020581700205417002050170020ED
:108B50004C1700204817002000D000405D1700206F
:108B6000680B0020640B00205E170020FFF7D0BECA
:108B700010B50446FFF7B4F8024B1C60FFF7B4F8D9
:108B8000002010BD6417002010B5FFF7A9F8034BB3
:108B90001C68FFF7A9F8204610BD00BF641700202D
:108BA00007B530B9CDE90012FFF7EEFFDDE900129D
:108BB00030B1436823B1006803B05DF804EB184797
:108BC000232003B05DF804FB30B51C4685B058B9CE
:108BD000CDE90012FFF7D8FFDDE9001204B903ACBC
:108BE00020B9232005B030BD03B903AC8568002D42
:108BF000F7D023460068A847F4E70EB477B507AB73
:108C000053F8046B05460193B0B9FFF7BDFF044666
:108C100005463046019925F001FCAC42064602D0DB
:108C20002046FFF7A5FF002ED4BF3720002003B059
:108C3000BDE8704003B07047FFF7A6FF85420446C9
:108C4000E7D02846FFF794FFE3E700207047FEE7F0
:108C50004FF4005300204B60704701207047002004
:108C6000704707B5002001AB0190FFF7ADFF0198F9
:108C7000002808BF4FF0FF3003B05DF804FB10B5CB
:108C800014460020FFF78CFF204610BD034B022244
:108C9000186800238068194625F0FCBA900C002063
:108CA00090F8233001223BB190F82730022B03D1FA
:108CB00080F82720184670471346FBE780F82010FD
:108CC000704790F82000704790F8240070472DE915
:108CD000F8434FF00008044617461D46C3F80080CD
:108CE0004E1E2B68BB4206D32B68002B0CBF1B20EB
:108CF0000020BDE8F883FEF7FAFFD4F81490FEF7E1
:108D0000FCFFB9F1000FEFD0A269E368D35C06F86D
:108D1000013FE068E3690130984208BF4046E060E7
:108D2000FEF7E5FF6369013B6361FEF7E6FF6368F9
:108D3000204698472B6801332B60D2E738B50546AB
:108D4000FEF7CEFF04460021284600F01BFC20461B
:108D5000BDE83840FEF7C8BF2DE9F04104460D4696
:108D6000164690F82070FEF7BBFF012394F823808D
:108D700084F82330FEF7B8FFB8F1000F03D194F860
:108D80002600FFF7DBFF2E449FB1AE4213D02B78B5
:108D90000A2B03D10D2120462368984720462368DB
:108DA00015F8011B9847F0E72046236815F8011BCA
:108DB0009847B542F8D194F82660FEF791FF054632
:108DC0000121304600F0DEFB2846FEF78DFF002033
:108DD00084F82300BDE8F081002809DB0122430963
:108DE00000F01F0002FA00F0024A603342F823004C
:108DF000704700BF00E100E070B504460568FFF76A
:108E0000C3FE844202D10020FFF7B2FE95F9210093
:108E1000FFF7E2FF95F92130002B0DDB01215A0904
:108E200003F01F0301FA03F31449203241F8223002
:108E3000BFF34F8FBFF36F8F95F92200FFF7CCFF81
:108E400095F92230002B0DDB01215A0903F01F0395
:108E500001FA03F30949203241F82230BFF34F8F62
:108E6000BFF36F8F00232846C4E90033C4E90433FD
:108E7000A360AB68BDE87040184700BF00E100E0A8
:108E800070B590F8243004460D4681B173B990F85E
:108E90002560FEF725FF05460121304600F072FBF4
:108EA0002846FEF721FF012384F8243070BD002BF3
:108EB000FCD090F82500FFF741FF84F82450F5E737
:108EC000036A006818470000F8B51F465368064655
:108ED0000C461546002B63D09368002B62D02822E5
:108EE0000021204625F009F96B682046A361AB6894
:108EF000E3612B7B2760012784F82030069B6360A9
:108F0000079BA3602B7884F821306B7884F822309B
:108F1000254B34607360254BB360254B3361254B83
:108F20007361254BF360254B3362254B84F8277022
:108F3000B361244BF3619DF8243084F8237084F8E6
:108F400026309DF8203084F825300023697B84F892
:108F50002430FFF795FF95F90100FFF73DFF95F9E4
:108F60000130002B06DB5A0903F01F039F40164B0C
:108F700043F8227095F90000FFF72EFF95F90030B5
:108F8000002B08DB0122590903F01F0302FA03F347
:108F90000D4A42F821303046FFF7EAFD0020F8BDC7
:108FA0002220FCE72120FAE7598D0000CF8C000039
:108FB000BD8C0000C38C0000F98D0000A18C000066
:108FC000818E0000C98C000000E100E04269C069A8
:108FD00082422CBF00200120704703698269D1546E
:108FE0004269036901324261C269013393420361FC
:108FF00004BF00230361042380F82730704790F8F2
:10900000233010B504464BB9012380F8233090F883
:109010002600FFF793FE022384F8273094F82300FC
:1090200010BD826AD36C43F00403D364704710B55B
:109030000446826A93695B06FCD5002394F82F10DE
:109040001A4694F82E00FEF7E7FF002394F831103B
:109050001A4694F83000FEF7DFFF94F8363093B1EB
:10906000002394F833101A4694F83200FEF7D4FF28
:1090700094F836303BB1002394F835101A4694F832
:109080003400FEF7C9FFA06A0021FFF7EBF8A08DBE
:109090000021FEF7D1F8002010BD10B50446806A0B
:1090A000FFF704FAA26A0020D36C43F00103D364F3
:1090B00010BD00002DE9FF4101271C46574B0A9DBA
:1090C0000193574B904600930A46CDE90277294613
:1090D000544BFFF7F9FE064600287AD1236839463B
:1090E000AB62A3883A20AB85E37985F82F30A3796A
:1090F00085F82E30637A85F83130237A85F8303060
:10910000E37A85F83330A37A85F83230637B85F8CB
:109110003530237B85F83430FEF78EF83B46042249
:10912000E179A079FEF778FF3B460222617A207A46
:10913000FEF772FF3946A088FEF77EF888F80060D7
:1091400041462068FFF7CCF81422A37B5B0103F1B2
:10915000804303F57033C3F81C26E179A27942EA13
:109160000142C3F83426617A227A42EA0142C3F806
:109170002C2685F8366098F81830032B4CD8DFE899
:1091800003F01A022C460123002785F8363000230D
:109190000222E17AA07AFEF73FFFE37AA27AA17B6E
:1091A00042EA0342204B49015A500422236803F546
:1091B0008053DA65A7B9A379052185F82E30E379C4
:1091C00085F82F302068C36C43F00403C364FFF7B5
:1091D00049F8304604B0BDE8F081022385F8363006
:1091E00000230422617B207BFEF716FF022741F259
:1091F0001C61A27B0D4B03EB42104750607B217B2F
:10920000B13241EA004103EB42139960D3E70323F3
:10921000012785F83630BAE72326DAE72F900000D9
:10922000239000009B90000024D6034000C0034020
:10923000836A10B59B690446190609D5FFF7C6FE77
:10924000E0B1A06AFFF722F901462046FFF7C5FE0C
:10925000A36A9A6CD20710D5012103F500529164DC
:10926000DA6C204622F00102DA64FFF7C8FE20B96A
:10927000A26AD36C43F00103D36410BDA26AD36C1D
:1092800023F00403D364E3E7BFF34F8FBFF36F8F83
:10929000054B5A6A22F480325A62D3F8942022F0A5
:1092A0000102C3F89420704700ED00E070B5254836
:1092B000254CFFF7E9FF844208BF4FF08043234A63
:1092C00018BF20F01F03D2F8C01018BF203B21F0B8
:1092D000FF0141F0A001B3F1005FC2F8C0100CD350
:1092E0001B4D1C4E296843F00103C2F89810013150
:1092F000C2F89C60C2F8A0302960844210D01448A3
:10930000154B0268114923F01F0343F00303C1F812
:109310009820C1F89C30114B0132C1F8A030026096
:10932000BFF34F8FBFF36F8F0522084BC3F8942014
:109330005A6A42F480325A62BFF34F8FBFF36F8F85
:1093400070BD00BFF40C0020CC0E002000ED00E04A
:109350006817002003000020EB0E0020E1FFFF3F14
:1093600010B51446FFF790FF1F2C21D9194A1A4C4B
:10937000D2F8C03021F01F0123F47F4343F48073FF
:10938000C2F8C030C30618BF20F01F002368114A7E
:1093900018BF203020F01F00C2F8983040F00300C2
:1093A00041F003010133C2F89C00C2F8A010236011
:1093B000BFF34F8FBFF36F8F0522064BC3F8942086
:1093C0005A6A42F480325A62BFF34F8FBFF36F8FF5
:1093D000002010BD00ED00E068170020BFF34F8FA4
:1093E0000549064BCA6802F4E0621343CB60BFF341
:1093F0004F8F00BFFDE700BF00ED00E00400FA055D
:1094000008B5FFF7EBFF08BD034B1B78002B14BF1B
:1094100001200220704700BF981700200329F8B5EB
:1094200098BF124B05460E468CBF00245C5C032897
:1094300005D8DFE800F002080B0E44F002040C4BE4
:109440001F684FB9F8BD44F00804F8E744F0200461
:10945000F5E744F08004F2E77B681A68144203D011
:10946000314628465B6898473F68EAE7E2F6020023
:109470009417002038B5104D2B78ABB10F4C2378E2
:109480001BB100F047FB00232370002000F064FBB9
:109490000B4C50B100F06AFB0023012120782B70A7
:1094A000FFF7BCFF0123237038BD0122054B1A7062
:1094B0002278054B1A70F7E7911700208D170020CE
:1094C0008417002090170020A417002010B5FEF785
:1094D00007FC064B04461B781BB1BDE81040FEF7A5
:1094E00003BCFFF7C7FF2046F7E700BF8C1700203B
:1094F000002814BF0121FF21074A13780B44137081
:1095000008D0064B1B78012B04D9054B1B780BB9EF
:10951000FFF7B0BF704700BF9817002084170020E6
:109520009017002070B5FEF7DBFB114E054633782F
:109530008BB900F023FC044620B12846FEF7D4FB8B
:10954000204670BD00F01AFD0A4B18600A48FDF76E
:1095500085FC0A4B1C6000F01FFA00F03BFB084B37
:1095600000241860012328463370FEF7BDFBE7E7AF
:109570008E170020A017002094170020A8170020A5
:109580008817002000292DE9F34114BF0121FF2194
:10959000254A00F1FF30135C0B4413543AD0234E9C
:1095A0003278012A36D9FFF72FFF0128044634D834
:1095B0001F4FFEF795FB3B781BB31E4D2B781BB955
:1095C00001222A701C4A1370DFF8708098F800306E
:1095D00033B1019000F09EFA0023019888F8003022
:1095E000FEF782FB012000F0B7FAFEF779FB2B783B
:1095F0002BB1019000F0BAFA002301982B700023E0
:109600003B70FEF771FB3078A04203D02146FFF794
:1096100005FF347002B0BDE8F081032AF3D10228BF
:10962000F1D100F0F1FAEEE798170020841700203E
:10963000911700208C170020901700208D17002014
:1096400010B50446FEF74CFB002C14BF0121FF218E
:10965000064A13780B44DBB21370B3FA83F3BDE808
:109660001040034A5B091370FEF73EBB9B170020B6
:109670009A17002068B5FEF733FB094B06461B78A6
:10968000012B04D8FEF730FB0025284668BD054BAA
:109690001D6800F0A3FA05443046FEF725FBF4E709
:1096A00084170020A817002007B5FEF719FB0190CA
:1096B000FFF7E0FE019803B05DF804EBFEF714BB82
:1096C00038B541600446FEF70BFB054621460448C9
:1096D000FDF7C7FB2846BDE83840FEF705BB00BFD5
:1096E00094170020054B1B685843054B00F5742068
:1096F00000F23F20B0FBF3F0704700BFA01700203E
:1097000040420F002DE9FF47FEF7EAFA0446FDF755
:10971000C3F8002800F08E80654E664F337823B181
:109720000020FFF7E5FE00233370FFF76DFE0546CE
:10973000002800F08580851EEDB2012D40F2888062
:10974000FFF762FE0128804604D95B4B1B780BB9FA
:1097500000F09EF9594DDFF880912878DFF87CA160
:1097600040450AD0002389F800309AF8003013B938
:109770004146FFF753FE85F8008099F800303BB171
:109780002B78022B04D1002389F800301EF00EFD47
:10979000B8F1010F0FD9DFF8208198F8003053B9E4
:1097A000474B1B7823B900F0AFF90122454B1A70E3
:1097B000012388F80030287800F0F6F99AF8003094
:1097C00013B1414B1B782B7000E000BF2046FEF721
:1097D0008BFAFEF785FA0446384600F009FBFDF7E0
:1097E00066F88046002899D1334F89F800003B780D
:1097F0009BB1DFF8D0908AF8000099F800301BB1D7
:1098000000F088F989F80080002000F0A5F9002810
:1098100044D000F0ABF900233B70337823B1002033
:10982000FFF766FE0023337000212878FFF7F6FD6E
:1098300000232B70204604B0BDE8F047FEF754BA71
:109840003378002B3FF47CAFFFF752FE357077E79B
:10985000002003A900F04EFB054600287FF470AFFE
:109860001A4B039A1B689A4205D80120FFF740FE65
:109870000123337064E7164BD3F8008000F0AEF993
:10988000039940448842F0D20223091ACDE90053DB
:1098900038462B460F4A00F0D3FA51E7012000F07A
:1098A00083F92046FEF720FAFEF71AFA0446ABE7E2
:1098B0009C1700206C1700209117002084170020AF
:1098C0009B1700208D170020A41700208817002068
:1098D000A8170020CD9400009A17002090170020B0
:1098E00010B5FEF7FDF90022044B1C781A70FEF744
:1098F000FBF900F015FC2043C0B210BD8F1700200B
:1099000038B50B4D2B788BB10A4C237873B100F02E
:109910002DF9094B01211878FFF780FD0022012362
:10992000064922700A70064A2B70137038BD00BFBA
:109930008417002090170020A41700209117002002
:109940008F1700207047000073B5114E044633781E
:10995000834212D000238DF8043080B102238DF8A9
:10996000053001A8FEF7D0FA0A4D402054B1FFF7A8
:10997000B9FE2B68181A2860347002B070BD8DF8DB
:109980000500EEE7FFF7AEFE2B681844F3E700BFD3
:109990006C0B0020B417002073B5002401A88DF8CB
:1099A0000440FEF7A7FA20464FF40024FFF7CCFF4F
:1099B0003149324B0A6F02F007021A60D1F82031A8
:1099C000D1F8240101F580514C664FF400344C6607
:1099D00001F598318969032A00F0070001F00201BE
:1099E00041D003F003039C1E63426341022808BF79
:1099F00043F001032248234D037061B31E4A3BB973
:109A0000D2F8003103F00303591E4B424B4103705F
:109A1000D2F8003103F00303022B26D0032B27D00A
:109A2000012B18D1FDF7DCF9A8B1174B411EDC68FA
:109A30000023024608461946C4F30B04134E0134B2
:109A400004EB8404E4FB060124F040F9FFF74AFE2E
:109A50002B68184428606420FFF744FE2B681844E4
:109A6000286002B070BD0123C0E7FDF7DBF9DBE73A
:109A7000FDF7CCF9D8E700BF00800040AC1700200C
:109A8000B2170020B417002000C0014040420F0070
:109A9000FEF7D4B9074B1A7852B100221A70064A61
:109AA000136F23F0070343F001031367FDF782B937
:109AB000704700BFB0170020008000400E4B10B56B
:109AC0001B7883B1022000F0D1FB60B100F044FAB2
:109AD00048B10A4B9A6DD20306D5DB6D9B0703D5BF
:109AE0000122074B9A6210BD0124064B1C70FEF741
:109AF00095FE034B9C62F6E7B217002000C00040C1
:109B000000D00040B11700200122014B1A707047AD
:109B1000B017002038B50C4B1B786BB10B4C237879
:109B20007BB90B4B0B4D9A6D12F4803F05D0DB6D6A
:109B30009B0702D50123AB6238BDFEF76FFE012300
:109B4000AB6200232370F7E7B2170020B1170020A3
:109B500000C0004000D00040034B1B780BB1FEF763
:109B6000C7BE0120704700BFB217002008B5FEF73E
:109B700067F9094A0949136F096823F007030B4382
:109B80001367074B1B7813B10122064B9A62BDE89D
:109B90000840FDF70FB900BF00800040AC1700205F
:109BA000B217002000E0004002280AD003280BD0A2
:109BB00001280CD1064A136923F00403136130BF56
:109BC00070470020FEF7F6B80020FEF717B970477F
:109BD00000ED00E04FF4C870FFF784BD08B5054BF9
:109BE000187818B1FEF760FE00EBD000024B1B683E
:109BF000184408BDB2170020B41700200122014B01
:109C00001A707047B21700207047000038B500F096
:109C1000D5FA094B094A196839B113684C69C51A54
:109C2000AC4204D323441B1A4B61106003E00023B1
:109C3000001B10604B6138BDD0170020BC170020FE
:109C4000C38870B504460D463BB9FFF713FD854246
:109C5000064602D2FFF728FD35460F4965610B68BD
:109C6000ABB90C60A36011E0AD1A9A681846656143
:109C70002AB113465A69AA42F6D950B11A46134678
:109C80008460A36013B15969491B596170BD0020FC
:109C9000F0E70C60F5E700BFD017002038B50F4B98
:109CA0000F4D1C682B6802205B691C4400F0BAFA57
:109CB000204600F08BFA00230A492A680B70D088EE
:109CC000800702D501230B7038BD9268002AFBD0B3
:109CD00050690344012BF2D9F6E700BFBC170020FE
:109CE000D0170020C417002070B59DF814501646F8
:109CF00005710025049A8560BDF818500446C5809A
:109D0000C0E903360D46026029B941610BB1114625
:109D1000984796B13546FDF7EAFF0646FFF776FF0E
:109D200029462046FFF78CFF054B1B68A34201D153
:109D3000FFF7B4FF3046FDF7E0FF002070BD00BF25
:109D4000D017002000220C490B687BB183420AD156
:109D500083687AB1936083681BB15A6941690A4488
:109D60005A61002070471A469B68EEE70028EFD042
:109D7000022070470B60EEE7D017002070B5FDF7AA
:109D8000B6FF144E05463478FCB9134B1C60134BD8
:109D90001C60134B1C8000F0CFF9012000F042FA48
:109DA00000F08EFA0F4B0246186020B92846FDF7E6
:109DB000A4FF232070BD234640F2E7310A4823F078
:109DC00085FF0A4B1860012333702846FDF795FF85
:109DD0000020EFE7B8170020D0170020BC170020A4
:109DE000C6170020CC17002018FCFFFFC01700206A
:109DF0002DE9F0410546F8B1FDF779FF0F4F064612
:109E0000FFF704FF2846D7F80080FFF79BFF0446C2
:109E100028B13046FDF771FF2046BDE8F081A84526
:109E20003B6803D123B1FFF739FFF2E7002BF0D1F4
:109E3000022000F003FAECE72224EDE7D01700201F
:109E400070B586B015461E460446059180B1FFF7F1
:109E5000CFFFBDF82C30002202939DF82830204619
:109E6000CDE9006305992B46FFF73EFF06B070BDB4
:109E70002220FBE738B50C46054698B191B1002386
:109E80000B70FDF734FF0121074B1B680BB12278E3
:109E90001AB1FDF732FF002038BDAB4214BF9B68FA
:109EA0002170F3E72220F7E7D0170020F0B51F4616
:109EB000002387B00D46164604468DF81730A0B132
:109EC0000DF11701FFF7D6FF9DF817207AB9BDF8FD
:109ED0003430294602939DF830302046CDE9007396
:109EE0003346FFF701FF07B0F0BD2220FBE7032058
:109EF000F9E700002DE9F04107468846FDF7F7FE37
:109F000000260546124B1C6824B92846FDF7F5FECD
:109F10001B2016E063691E44E388BB4215D100F0A4
:109F20004DF90C4C2368C01AB0420CD200F046F92F
:109F300022683244121A2846C8F80020FDF7DDFED8
:109F40000020BDE8F0810022F5E7A468DCE700BF4F
:109F5000D0170020BC170020014B1878704700BFB5
:109F6000C417002038B5FDF7C2FE054600F026F9FB
:109F700004462846FDF7C1FE204638BD014B18684F
:109F8000704700BFCC1700200A4B10B51B680C4669
:109F900083420CD3084B4FF47A7219680023A0FB5C
:109FA000010123F093FE01302060002010BD21202C
:109FB000FCE700BFC0170020CC1700200F4B10B5E6
:109FC0001A689AB14FF47A71531E1342A0FB010133
:109FD0000ED1B2FA82F2C2F11F04531CD243E04008
:109FE00001FA03F3184321FA02F20243104610BDAE
:109FF000002323F06BFE0246F8E700BFCC170020D9
:10A00000C2072DE9F84F04460BD5414A13880133A6
:10A010009BB21380FFF7FAFD3E4B1B680BB1FFF7B5
:10A020003DFEA30771D500F0C9F8DFF8F0904FF0BE
:10A030000008D9F800700646C71BFDF758FEC34656
:10A0400005464246334B1C6814B16369BB4219D9BB
:10A050000021314BB8F1010F197005D122B1D2881E
:10A06000022A08BF83F80080002C4AD06369C9F82F
:10A070000060DB1B6361FFF711FE2846BDE8F84F67
:10A08000FDF73BBE23463A46C9F800605969914244
:10A0900009D8187994F804C0521A844588BF1C4620
:10A0A0009B68002BF2D12846FDF727FE6569C4F8AE
:10A0B00014B0FDF71CFE82462046FFF743FE5046D3
:10A0C000FDF71BFE23694BB1FDF711FE82462169A6
:10A0D0002046FFF7B5FD5046FDF70FFEE36813B1CC
:10A0E00020462168984700F069F835447F1B824676
:10A0F0000744FDF7FCFD56460546224608F10108D7
:10A10000A0E7022000F09AF8B7E7BDE8F88F00BF9B
:10A11000C6170020D0170020C8170020BC17002049
:10A1200010B5FDF7E4FD034B1C78FDF7E6FD204676
:10A1300010BD00BFC81700201FB500241C4B012113
:10A1400018689A880290D3F806009B7A00903E2007
:10A15000ADF80C208DF80430FDF76EF802A88DF8EC
:10A1600008408DF80C40FDF7FDFF694601208DF891
:10A170000040FDF7BBFF4FF0904240F2FF31936982
:10A1800023F47F7323F0030393610A4B5961936AAD
:10A1900013F00803FBD113620120FDF7C1FF4FF458
:10A1A0008052054BC3F880211A6004B010BD00BF77
:10A1B000E6F602000020004800E100E04FF0904386
:10A1C0009A6A1207FCD4186A704700004FF0904258
:10A1D000936A1907FCD4136A116C5269520604D4AD
:10A1E000CA1A032A01D899420ED1C21A022A98BF6C
:10A1F000D81CB0F1FF3F38BF01384FF090431864CE
:10A200009A6942F040029A61054A13783BB14FF0D7
:10A210009041CB6B43F00203CB6300231370704774
:10A220006D0B002082074FF0904200F0010391690E
:10A2300048BF43F040030B4393617047820700F02F
:10A2400001030AD50121084A43F0400311704FF081
:10A250009041CA6B22F00302CA634FF090418A69B1
:10A2600022EA03038B6170476D0B00204FF090438F
:10A2700001285B6904D0022805D1C3F38010704720
:10A2800003F00100704700207047000010B5FDF793
:10A290002EFD4FF0904304465B695A06074A03F0CF
:10A2A000010003F0510348BF40F002005361FFF783
:10A2B000A7FE2046BDE81040FDF71FBD0020004866
:10A2C0003E20FDF705B808B5FCF72AFAFCF760FA5E
:10A2D000FCF75FFAFCF76CFABDE80840FCF76FBAD0
:10A2E00008B5FCF76EFAFCF76DFAFCF76CFABDE8FE
:10A2F0000840FCF76ABA000010B50446FCF75AFDA6
:10A300004FF47A735C43B0FBF3F30748B0FBF3F010
:10A31000B4FBF0F0022806D9BDE810400323B0FBDF
:10A32000F3F000F005B810BD40420F00000000003F
:10A33000013800D0FCE7704738B50446FDF7D0FC83
:10A340000546204623F092FE04462846FDF7CCFC45
:10A35000204638BD37B504460191FDF7C1FC01998F
:10A360000546204623F042FE04462846FDF7BCFC85
:10A37000204603B030BD38B50546FDF7B1FC0446B4
:10A38000284623F07BFE2046BDE83840FDF7ACBCF4
:10A390000A4619B1024B00211B681847704700BFDD
:10A3A000700B002000F4E040B0F5805F04D0A0F511
:10A3B000005358425841704701207047B0F5105F74
:10A3C0000DD009D8B0F5885F10D0B0F5905F0DD0F2
:10A3D00041F20103984209D06FF08500704721F0E7
:10A3E0004003802B02D0B1F5807F06D111F0070F1A
:10A3F00014BF6FF08600002070476FF08600704732
:10A400000E4B0340B3F1607F06D1B1F5885F14BFF6
:10A410006FF0860000207047B3F1707F0BD101F41C
:10A42000E043B3F5005F06D111F4E06F0CBF6FF0AD
:10A430008600002070476FF0860070470000C07FE4
:10A440008A422DE9F04180460D4600F01981944B77
:10A45000944802EA030181420BD0934922F0FF04A1
:10A460008C4206D0914C22F47F7121F00301A1426D
:10A470001ED12B4083420BD08B4B25F0FF0199421C
:10A4800006D08A4925F47F7323F003038B420FD152
:10A4900015F0FF030CD0864943F000738B4207D1BF
:10A4A0006A4032F0FF030CBF01200020BDE8F081BC
:10A4B00005F0FE43B3F1A06F17D102F0FE43B3F1F4
:10A4C000A06F40F0DF8082EA050333F47E1340F092
:10A4D000D98015F40040E9D0C5F30540C2F3054228
:10A4E00090428CBF00200120E0E7B3F1407F40F0B4
:10A4F000B48002F0FE43B3F1407F40F0C38082EAB3
:10A50000050333F47E1640F0BD8041462846FFF730
:10A5100077FF002840F0B680664C12F47C1704EAFE
:10A5200002043AD0B4F1607FC2F305477BD1D3B2C5
:10A5300043F0007303F17E410139022977D903F119
:10A540007E410439012974D95B498B4275D00131B0
:10A550008B4274D001318B4273D001318B426AD06F
:10A5600001318B4269D001318B4268D003318B427B
:10A5700063D001318B4262D001318B4261D0013115
:10A580008B4208BF402615F47C1FC5F305435AD102
:10A59000BE4214BF0020012088E7B4F1607F2CD1B7
:10A5A000D3B243F0007303F17E41013902296BD924
:10A5B00003F17E410439012968D93F498B4269D0B2
:10A5C00001318B4268D001318B4267D001318B421F
:10A5D0005ED001318B425DD001318B425CD00331C2
:10A5E0008B4257D001318B4256D001318B4255D02E
:10A5F00001318B4208BF402799E7B4F1707FC2D187
:10A6000008F4E043B3F5005F03D10127C8F3022348
:10A610009F4008F4E043B3F5005FB4D10126C8F3CE
:10A6200002239E40AFE7B4F1707FACD1F1E7102672
:10A63000A9E71426A7E74026A5E71C26A3E72026BE
:10A64000A1E730269FE712F47C1F01D1B34217D057
:10A650002A047FF52BAFBB4243E7B3F1106F11D152
:10A6600025F01F6323F4702363B902F0FE43B3F1B6
:10A67000106F07D11148104040F01060A84288E7E1
:10A68000012013E7002011E7102750E714274EE7B9
:10A6900040274CE71C274AE7202748E7302746E7B2
:10A6A00000FEFFFF0002000600090006000400068D
:10A6B000FF0000020000C07F080000020000FFF65B
:10A6C00043680A461B0A10B403D05DF8044B00F03F
:10A6D000AFBE4388B3B1018801F4E040B0F5805FBC
:10A6E00002D0B0F5005F02D10733DB1009E047F27A
:10A6F000010081420AD15B080133DB1003EBC30385
:10A700003B33136000205DF8044B704744F20100B6
:10A71000814202D1DB081033F3E747F202008142A5
:10A7200004D1DB0803EB43035A33EAE744F20200A7
:10A73000814204D1DB0803EB43034A33E1E721F014
:10A74000FF01B1F5E24FCFD0B1F5824F04D107330D
:10A75000DB105B000133D4E76FF08500D3E77FB5F2
:10A7600000F0FE46B6F1106F0D4603D06FF0850085
:10A7700004B070BD20F01F6424F47024002CF5D1C7
:10A780000A9C0294099C0194089C009400F0A3FF89
:10A7900010F1860FECD16B681B0AE9D1E6E70000E7
:10A7A0002DE9F843884617461C4601F069F805462E
:10A7B00000283FD1D8F80060B6F8009009F4E043D3
:10A7C000B3F5804FF36808BF27F0010737EA0303AA
:10A7D00028D17CB3224A24F4FF7323F0010393426F
:10A7E0000BD0204B24F0FF029A4206D01E4A24F4DC
:10A7F0007F7323F0030393421FD114F0FF0304D0AF
:10A800001A4A43F0007393421ED0224648463169EB
:10A81000FFF716FE074668B9224648467169FFF7FA
:10A820000FFED0B96FF0840500233046C8F8003021
:10A8300001F066F82846BDE8F88304F0FE43B3F162
:10A84000407F04D12304E0D56FF08605ECE7B3F137
:10A85000A06FF7D0054B9C42D6E73D46EAE700BF24
:10A86000000200060009000600040006FF000002C6
:10A8700038B5037904460D4633B9A36820462B60EA
:10A8800001F03EF838B938BDD0E9081201F0FCF803
:10A890000028F2D0F7E700232B60F4E700232DE92E
:10A8A000F341D0E9016804460F4630461146136073
:10A8B00001F030F8054688B9304601F02DF805461C
:10A8C00060B9F6B276B9B8F1000F05D1E36823F4A8
:10A8D000FE4323F0030363B16FF08605284602B000
:10A8E000BDE8F0810146A06800F01EFF0028EDD110
:10A8F000F2E74FF6F87362889A421CD8238B23F054
:10A900000103002BE8D1394601A800F077FF054686
:10A910000028E3D10FCC3F683E460FC694E80700FD
:10A920003B7986E807000BB9019BBB603B8B23F0AA
:10A9300001033B83D2E76FF08505CFE770B5046A6A
:10A9400005460E463CB90120FFF704FD286228B1F8
:10A9500020466E6270BD6FF08A00FBE76FF08C00DE
:10A96000F8E773B50E46114605460192FFF7E6FF7C
:10A97000044620B93146019A286A23F097FB204605
:10A9800002B070BD2DE9F041089E88461F4604883C
:10A9900022B96FF085042046BDE8F0812046FFF71C
:10A9A00001FD0028F5D033680BB9D3003360B2F154
:10A9B000005FEED24FF6F87331689942E9D820462D
:10A9C000FFF7FCFC04460028E5D1CD1D0699EB08F5
:10A9D000B1EBD50F0BD393420CD14146384623F04F
:10A9E00065FB3368079A0733DB081360D3E76FF022
:10A9F0008904D0E76FF08604CDE710B50446006AFD
:10AA000010B1616AFFF7C4FC206AFFF7B4FC0020B4
:10AA1000C4E9080010BD38B50446FFF7EEFFE3694E
:10AA20002822012B0CBF05466FF096050021204619
:10AA300023F063FB284638BD13B5044660B101A975
:10AA400000F01EFF044638B90198C369012B06D9EE
:10AA500000F056FF6FF08304204602B010BD03796A
:10AA60001BB1806800F065FF04460198FFF7D3FF33
:10AA7000002C08BF0446EFE773B5044608460E46AF
:10AA800000F0A8FC002320461A4601A9FFF788FE23
:10AA900070B93446019D0FCD0FC495E8070084E8D6
:10AAA0000700338B019803F00103338300F028FF84
:10AAB00002B070BD70B5144602881D461046049E53
:10AAC000FFF770FC50B944F2010322F44050984261
:10AAD00004D002F44F42B2F5824F0ED1B4420FD8E7
:10AAE0002246284623F0E2FA0021321B281923F0DF
:10AAF00004FB0020059B1C6070BD6FF08500FBE728
:10AB00006FF08900F8E72DE9F04188461F461646A8
:10AB10008CB022B3002301223B6002A9FFF740FE64
:10AB2000D0B9DDF808C003AC6546CDE90A000FCD09
:10AB30000FC495E8070084E80700CDE900674346A5
:10AB4000DCE9081203A800F00AFD0446029800F0B0
:10AB5000D7FE002C18BF20460CB0BDE8F0816FF086
:10AB60008900F9E770B51D4644F2010314460288D6
:10AB7000049E22F44050984204D002F44F43B3F5AF
:10AB8000824F13D102F4E042B2F5804F0ED1B442AD
:10AB90000FD82246284623F089FA0021321B2819B3
:10ABA00023F0ABFA0020059B1C6070BD6FF08500A0
:10ABB000FBE76FF08900F8E72DE9F04389469846F6
:10ABC00017468DB052B3002302A91A46C8F80030C8
:10ABD000FFF7E6FDE0B9029E33885B041BD53546DE
:10ABE00003ACCDE90A000FCD0FC495E8070084E857
:10ABF0000700CDE900784B46D6E9081203A800F01B
:10AC0000B9FC0446029800F07BFE002C18BF2046D9
:10AC10000DB0BDE8F0836FF08604F3E76FF08900B4
:10AC2000F6E72DE9F0411E46002388B00546884628
:10AC30001746CDE9043307923360002A4CD005AAA9
:10AC400004A9FFF72BFE0446D0B9284607A9FFF751
:10AC500037FD0446A0B90498036AB3B1049B41468A
:10AC60005A882846069206AA029203F1240201920B
:10AC70005A6A00921B6A3A4600F04AFC044658B1F0
:10AC8000049800B3FFF7C7FE1DE00799FFF756FED3
:10AC900004460028E2D0F3E70498069B4288B2B944
:10ACA00043802B8813B102889A4212D12B6A83B950
:10ACB0006B8813B142889A420BD13146FFF7D8FD19
:10ACC00004460028DCD1204608B0BDE8F0819A4255
:10ACD000E7D06FF08604D3E76FF08604F3E70368EC
:10ACE00010B5044653B100F0EDFC00232360A388A7
:10ACF00023F4FF7323F00103A38010BD1846FCE783
:10AD00002DE9F04105461F462B68084616468CB0D3
:10AD1000002B40F0F18002F0FE43B3F1407F40F0A1
:10AD2000EE80002F134602A914BF4FF480524FF457
:10AD30000052FFF735FD002840F0CC80DDF8088098
:10AD400003ACC446CDE90A00BCE80F000FC49CE880
:10AD5000070084E807003046BDF80C10FFF750FBF1
:10AD60000446002840F0AD806B7916F47C1F67F331
:10AD700000036B7105D0C6F30544032C2C710FD86A
:10AD800076E0604B3340B3F1607F74D1F3B243F0AF
:10AD9000007303F17E42013A022A3AD810242C7142
:10ADA000584B3340B3F1607F73D1F3B243F000737B
:10ADB00003F17E42013A022A40F28F8003F17E4283
:10ADC000043A012A40F28B804F4A934200F0898076
:10ADD0000132934200F087800132934200F0858077
:10ADE0000132934200F083800132934279D00132E4
:10ADF000934278D00332934273D00132934272D09F
:10AE00000132934271D00132934270D06FF08604C8
:10AE100057E003F17E42043A012A01D81424BEE728
:10AE2000394A934201D11C24B9E7384A934201D1EF
:10AE30002024B4E7364A934201D13024AFE7354AA3
:10AE4000934201D14024AAE7334A9342EBD0013226
:10AE50009342EDD003329342E5D001329342E7D0E2
:10AE600001329342E9D001329342EBD000232B719F
:10AE70006FF0850425E0B3F1707FF7D101F4E04372
:10AE8000B3F5005FF2D10124C1F302239C40E4B288
:10AE900073E7B3F1707FB9D101F4E043B3F5005F1C
:10AEA000B4D1C1F30223012199408C42AED8D8E934
:10AEB00008232846009603A9DFB100F0C6FB04462C
:10AEC00010B12846FFF70BFF029800F019FD002C87
:10AED00018BF20460CB0BDE8F0811021E5E7142131
:10AEE000E3E71C21E1E72021DFE73021DDE7402116
:10AEF000DBE700F0BDFBE2E76FF08800EAE76FF008
:10AF00008600E7E70000C07F080000020900000299
:10AF10000A0000020B0000020C0000020123FFF7F0
:10AF2000EFBE38B50368054614464BB132B100F0A8
:10AF3000B2FB044610B12846FFF7D1FE204638BDCB
:10AF40006FF08804FAE71A602DE9F04114460268B0
:10AF500005460F46984602B34279D2071DD50279BD
:10AF6000DAB1A2421CD800F09FFB064678B92879D6
:10AF7000A04204D22121221A384423F0BEF82846E8
:10AF8000FFF7ADFE002E18BF3046BDE8F081224627
:10AF900021213846C8F80040EFE76FF08800F4E759
:10AFA0006FF08900F1E7036810B504463BB100F08B
:10AFB00043FB00232360237923F003032371002044
:10AFC00010BD00002DE9F0410646012B984633687C
:10AFD000154608460CBF4FF480724FF400728CB0D7
:10AFE000002B68D105F0FE43B3F1806F66D12B468C
:10AFF00002A9FFF7D5FB0446002841D13379314A35
:10B0000023F00303954218BF43F00103DDF808C0A5
:10B010003371BCF8003003F4E042B2F5005F3BD17D
:10B0200013F4E06FC3F3022036D0274A25F4807171
:10B0300091420AD002F50072954206D0234A954209
:10B0400003D0A2F53F42914226D101228240D2B2E2
:10B0500000236746727103ACCDE90A330FCF0FC4EA
:10B0600097E80700B8F1010F84E80700DCE908233E
:10B070003046009503A91BD100F09EFA044610B19A
:10B080003046FFF790FF029800F03AFC002C18BF02
:10B0900020460CB0BDE8F08142F20402934205D193
:10B0A0000B4A95420CBF0C220022D1E70022CFE7C9
:10B0B00000F095FAE2E76FF08800EAE76FF08600AB
:10B0C000E7E700BF004440040010C00400FF400454
:10B0D000000180040123FFF775BF37B504680546FA
:10B0E00094B1047904F00304012C0DD0079C019461
:10B0F000069C009400F086FA044610B12846FFF73B
:10B1000052FF204603B030BD6FF08804F9E770B5F8
:10B11000046805461E46A4B1047904F00304012C1A
:10B120000FD000F07BFA044620B92846BDE87040F5
:10B13000FFF739BF002328463360FFF734FF20466E
:10B1400070BD6FF08804FAE737B50C4D0C462B7ACA
:10B15000DB070FD500230A460193014601AB2846C1
:10B1600002F09CFE20B9019BA34218BF6FF0930030
:10B1700003B030BD6FF08800FAE700BFD41700209D
:10B180002DE9F04705469A46002386B0059305F061
:10B19000FE43B3F1106F0846DDE90E961746DDF861
:10B1A000408022D12B464FF4804205A9FFF7F8FAE0
:10B1B000044658B953463A462846CDE901680599F0
:10B1C000CDF80090FFF7CBFA044628B13146484647
:10B1D000FFF7BAFFC8F80060059800F091FB002C5B
:10B1E00018BF204606B0BDE8F0876FF08604EDE793
:10B1F000034610B50C461146DA6900880AB91B6A85
:10B200003BB9FFF7CFF838B12046BDE81040FFF753
:10B210009BBF6FF0860010BD6FF08500FBE72DE946
:10B22000FF410023CDE901330B60438806460D46FC
:10B23000002B00F0878002AA01A9FFF72FFB04462C
:10B2400000BB019B1B6A73B10199304601F12403D5
:10B25000D1E9081200F03EF90446002875D00198A3
:10B26000FFF7CBFB0EE07268170A60D1B6F80080DA
:10B2700071884046FFF796F860B14046FFF79EF8A8
:10B28000044660B1019808B1FFF7C5FB204604B041
:10B29000BDE8F08128F0FF03B3F5E24F4FD108F489
:10B2A000E043B3F5805F02D0B3F5005F02D1CA1D61
:10B2B000D7100AE047F2010398450FD14A0801323E
:10B2C000D21002EBC20202F13B07039703990198E7
:10B2D000FFF734FB04460028B6D0D3E744F201035D
:10B2E000984503D1CA0802F11007EEE747F20203BE
:10B2F000984505D1CA0802EB420202F15A07E4E779
:10B3000044F20203984505D1CA0802EB420202F159
:10B310004A07DAE728F0FF00B0F5E24FC7D0B0F5F2
:10B32000824F01BFCA1DD2105200571CCDE73046D4
:10B3300003A900F07DF804460028C7D0A2E76FF00B
:10B3400085049FE76FF08604A0E729460198FFF780
:10B350008FFA0446002899D094E7000008B500F061
:10B3600033FA0748037A13F0060F03D008220021AE
:10B3700022F0C3FEBDE808400C210148FFF708B8E1
:10B38000D417002038B5124D297A11F0010102D0EE
:10B390000024204638BD0822284622F0AEFE0222B4
:10B3A0002B7A62F342032B7200F002FA044660B972
:10B3B00000F03CF810F1860F044600D028B92B7A33
:10B3C00043F001032B72002CE2D0FFF7C7FFE0E748
:10B3D000D417002010B50446C069FEF7CCFF204604
:10B3E000BDE810402422002122F087BE2DE9F04163
:10B3F00005460F4690461C469BB119460120FEF7B4
:10B40000A9FF064678B12246414622F04FFEE86980
:10B4100008B1FEF7B0FF0020C5E907642F80BDE842
:10B42000F0811E46F3E76FF08C00F8E702F034BDC0
:10B43000028843884068000A47D102F4E040B0F532
:10B44000805F02D0B0F5005F05D10733DB0863B938
:10B450006FF08500704747F2010082420FD15B0810
:10B460000133DB0803EBC3033B3322F0FF02B2F5E9
:10B47000824F01D1012BEBD000200B60704744F2CA
:10B480000100824202D1DB081033EEE747F20200EE
:10B49000824204D1DB0803EB43035A33E5E744F26D
:10B4A0000200824204D1DB0803EB43034A33DCE7AA
:10B4B00022F0FF00B0F5E24FC7D0B0F5824FC7D100
:10B4C0000733DB085B000133CFE700236FF0860012
:10B4D0000B6070472DE9F041476804463F0A0D466E
:10B4E0001646984611D107887F0407D44346324652
:10B4F00029462046BDE8F041FFF77ABE02F00AFA7D
:10B5000010F1860FF2D0BDE8F0816FF08600FAE707
:10B510002DE9F04F456885B02D0A0446DDE90E7A25
:10B52000894616469846DDF840B013D1CDE901AB07
:10B53000009702F0D9FA10F1860F0DD1434632463A
:10B5400049462046CDE90FAB0E9705B0BDE8F04F58
:10B55000FFF718BA6FF0860005B0BDE8F08F70B441
:10B560004668360A02D170BCFFF7A4BA6FF08600B5
:10B5700070BC70472DE9F34745680446DDE90A7A57
:10B580002D0A89461646984611D1CDE9007A02F077
:10B5900031FA10F1860F0CD1434632464946204617
:10B5A000CDE90A7A02B0BDE8F047FFF7DBBA6FF0E9
:10B5B000860002B0BDE8F08713B504464868000A6B
:10B5C0000AD10498009004F1080001F09BFE08B92C
:10B5D0000623236002B010BD6FF08600FAE713B5B2
:10B5E00004464868000A0AD10498009004F1080053
:10B5F00001F0D6FE08B90623236002B010BD6FF03B
:10B600008600FAE770B40668062E03D170BC0830D5
:10B6100001F014BF6FF0860070BC704710B404686E
:10B62000062C04D15DF8044B083002F0A5B86FF089
:10B6300086005DF8044B70470368062B02D1083082
:10B6400002F0BAB86FF08600704713B50446486838
:10B65000000A0AD10498009004F1080002F030FBBF
:10B6600008B90623236002B010BD6FF08600FAE728
:10B6700013B504464868000A0AD10498009004F102
:10B68000080002F04FFB08B90623236002B010BD8A
:10B690006FF08600FAE70368062B02D1083002F04B
:10B6A00043BB6FF08600704710B40468062C04D1C9
:10B6B0005DF8044B083002F087BB6FF086005DF840
:10B6C000044B70470368062B02D1083002F0D0BB50
:10B6D0006FF0860070472DE9F04198460D46002333
:10B6E0000E4690B007ACCDE90E33844617460FCD19
:10B6F0000FC495E80700736884E807001B0A10D19F
:10B70000189B60460493179B00970393169B07A909
:10B71000CDE90183D6E9082302F056F810B0BDE860
:10B72000F0816FF08600F9E76FF04043421E9A42C5
:10B7300008D329B100F1404098428CBF002101217B
:10B74000084670470121FBE700F100420332022A5C
:10B7500038B504460D460ED82821144B01FB0233A0
:10B760009A6882421CD1DA69511C1CD00020013237
:10B77000DA612B6038BD0121FFF7D6FF68B10B4BB2
:10B780009A689442EFD01A6B944204D09A6D944216
:10B7900006D15033E7E72833E5E76FF08700E9E7A4
:10B7A0006FF08B00E6E76FF09600E3E7E01700200C
:10B7B000044A002092F8783043F0010382F8783090
:10B7C000704700BFE017002038B501250A4C20461D
:10B7D000E561FFF720F904F128006564FFF71BF924
:10B7E00004F15000E566FFF716F994F878306FF32E
:10B7F000000384F8783038BDE0170020F8B51E4CFF
:10B80000064694F878300F46D8072ED500252346F3
:10B81000294618881A46A8B12DB91A791AB1DA69D9
:10B82000002A08BF1D460131032903F12803F0D186
:10B8300015B96FF08C001AE001232846EB61FFF781
:10B84000EAF82A46D369591C02D16FF096000EE03F
:10B8500000200133D361141B084BE4105C4304F156
:10B860000044033C34603A60F8BD6FF08800002368
:10B870003B603360F8E700BFE0170020CDCCCCCCB4
:10B880000023F0B50B601D4B074693F878300D464A
:10B89000DB0785B02ED5FFF757FF10F18C0F04465C
:10B8A00025D1294601A8FFF7A9FF0446F8B90123CD
:10B8B0002E68CDE90200B7603046736003AA02A982
:10B8C00000F03BF9044628B9DDE902123046FFF7E3
:10B8D00048F80446DDE9020100F025F93CB128688A
:10B8E000FFF799F814F18C0F08BF6FF0870420461A
:10B8F00005B0F0BD6FF08804F9E700BFE017002045
:10B9000038B1C3691BB1013BC361002070476FF0C0
:10B9100096007047002070470020704707B500214F
:10B920006A4600F049FB8C3018BF012003B05DF877
:10B9300004FB13B500216A46044600F03DFB8C3041
:10B9400002D1002002B010BD0021204600F060FBB3
:10B95000014628B96A46204600F02EFB8C30F0D014
:10B960006FF09800EEE70000F8B515460E46074662
:10B970000822184621491C4622F098FB0023237216
:10B980006372A372E3726B6839461A0A2373627397
:10B990001A0C1B0EA273E3732B8804F1240023748A
:10B9A0001B0A63746B88A3741B0AE374EB681A0A9E
:10B9B000237562751A0C1B0EA275E3752B691A0AA2
:10B9C000237662761A0C1B0EA276E3766B6984F8F6
:10B9D00020601A0A237762771A0C1B0EE377330A6A
:10B9E00084F82130330CA27784F82230330E3246AB
:10B9F00084F82330BDE8F84022F058BBF1F602008D
:10BA00002DE9F843232904460F4691469846089E9F
:10BA100004D86FF098052846BDE8F8830822194934
:10BA200022F034FB05460028F3D1A368002BF0D1A7
:10BA3000216A243FB942C8F80010EAD8B1F5005F86
:10BA4000E7D271B9C9F80000E3687360238A3380D4
:10BA5000638A73806369F360A3693361E369736127
:10BA6000D9E70120FEF776FCC9F8000030B1D8F81C
:10BA7000002004F1240122F019FBE5E76FF08C05AA
:10BA8000C9E700BFF1F602002DE9FF410646144662
:10BA9000884600293ED0002A3CD0B2F5005F3CD257
:10BAA00002F1240739460120FEF754FC0546B8B3DD
:10BAB0000346324621464046FFF756FFB66800244B
:10BAC0003046FFF72BFF01281ED021462B463A4671
:10BAD0003046009400F090F90146C0B9304602AA01
